:100000004CC2000067C2000065C2000063C200006D
:1000100061C200005FC200005DC200005BC2000060
:1000200059C2000057C200000C94F3230C94BF2463
:100030000C946F1F4FC200004DC200004BC2000065
:1000400049C2000047C2000045C2000043C2000090
:1000500041C200000C94E61F3DC200003BC20000FC
:1000600039C2000037C2000035C2000033C20000B0
:1000700031C200002FC200002DC200002BC20000C0
:1000800029C2000027C2000025C2000023C20000D0
:1000900021C200001FC200001DC200001BC20000E0
:1000A00019C2000017C2000015C2000000000000C5
:1000B0000000A84124002500260030002100220075
:1000C000230038001E001F002000300227003700E8
:1000D0002800240200000000000001002B782C788A
:1000E0002D7823782E782F783078247831783278EC
:1000F0003478277820782578267828781E0F050010
:10010000047F3F1F643214643214783C1E1E140AAC
:10011000052223252628292A2C2D2F303233353647
:10012000383A3B3D3E4042434547494A4C4E505188
:10013000535557595A5C5E6062646668696B6D6FAF
:1001400071737577797B7D7F81838587898A8C8EB2
:1001500090929496989A9C9E9FA1A3A5A7A8AAACBA
:10016000AEAFB1B3B4B6B8B9BBBCBEBFC1C2C3C5F4
:10017000C6C7C9CACBCCCDCED0D1D2D2D3D4D5D696
:10018000D7D7D8D9D9DADADBDBDBDCDCDCDCDCDDC9
:10019000DDDDDDDCDCDCDCDCDBDBDBDADAD9D9D8AD
:1001A000D7D7D6D5D4D3D2D2D1D0CECDCCCBCAC945
:1001B000C7C6C5C3C2C1BFBEBCBBB9B8B6B4B3B174
:1001C000AFAEACAAA8A7A5A3A19F9E9C9A9896940F
:1001D00092908E8C8A89878583817F7D7B797775E4
:1001E00073716F6D6B6968666462605E5C5A5957C3
:1001F000555351504E4C4A4947454342403E3D3B82
:100200003A3836353332302F2D2C2A29282625230B
:1002100022FFAA7F554000010101010101010101F6
:1002200002020202020202020203030303030303A7
:100230000304040404040404050505050506060674
:100240000606070707070708080808090909090A31
:100250000A0A0B0B0B0C0C0C0D0D0D0E0E0E0F0FD6
:100260000F10101111111212131314141515161664
:100270001717181819191A1A1B1B1C1D1D1E1E1FD3
:100280002020212222232424252626272829292A22
:100290002B2C2D2D2E2F303132323334353637384A
:1002A000393A3B3C3D3E3F40414243444546474846
:1002B000494A4C4D4E4F50515354555658595A5B1C
:1002C0005D5E5F616264656668696B6C6D6F7072BC
:1002D000737577787A7B7D7E8082838587888A8C28
:1002E0008E8F91939596989A9C9EA0A2A3A5A7A95C
:1002F000ABADAFB1B3B5B7BABCBEC0C2C4C6C9CB53
:10030000CDCFD1D4D6D8DBDDDFE2E4E7E9EBEEF008
:10031000F3F5F8FAFDFF10036800610063006B005D
:10032000700061006400000024034E006900630057
:100330006F00200053007400750068006C006D00B1
:10034000750065006C006C0065007200000004031D
:10035000090409023B00020100A0FA09040000019F
:100360000301010009211101000122440007058158
:100370000308000109040100010300000009211124
:1003800001000122B60007058203200001120100CE
:100390000200000008EDFE0000000101020001055E
:1003A000010902A10185020901A10005091901291C
:1003B000081500250195087501810205010930091C
:1003C000311581257F95027508810609381581252B
:1003D0007F950175088106050C0A38021581257F75
:1003E000950175088106C0C005010980A10185033A
:1003F00019012AB700150126B70095017510810073
:10040000C0050C0901A101850419012AA0021501EA
:1004100026A002950175108100C005010906A10101
:100420008506050719E029E71500250195087501DE
:1004300081020507190029EF1500250195F07501C6
:10044000810205081901290595057501910295019B
:1004500075039101C005010906A101050719E029ED
:10046000E715002501950875018102950175088140
:10047000010507190029FF150026FF0095067508DC
:10048000810005081901290515002501950575014B
:100490009102950175039101C00011241FBECFEF99
:1004A000DAE0DEBFCDBF11E0A0E0B1E0E0E7F0E5CB
:1004B00002C005900D92AA3EB107D9F723E0AAEE3B
:1004C000B1E001C01D92A239B207E1F70E94F0101D
:1004D0000C94D92795CD8230E0F46530D0F44430C7
:1004E000C0F490E0919581959109857090E0860F18
:1004F000911D880F991F880F991F840F911DFC0172
:10050000EE0FFF1FE455FF4F85919591282F822F05
:10051000089521E090E0FBCFDECF089581E00895BB
:1005200081E00895FBCF089581E0089581E008956A
:10053000FDCF089508950895FDCF08950895089575
:10054000A6E0B0E0E6EAF2E00C94E22649835A83A2
:100550009E833091F10189819A81311117C03E81CA
:10056000311589F0211579F00FD5182F682F898161
:100570009A81EAD469817A81812F0E94DD0D2696C5
:10058000E3E00C94FE26F0D4182FF4CFFDD469815B
:100590007A81F3CFFC01262F4081518162817381E2
:1005A00084819581CDCFCF93DF93EC0161E0F2DFC1
:1005B000BE01B6DF811529F061E0CE01EBDFBE019F
:1005C000B1DFDF91CF9108950F931F93CF93DF9306
:1005D000EC0160E0DFDF8C01BE01ADDFBE01C801D0
:1005E000ABDFDF91CF911F910F9108950F931F9370
:1005F000CF93DF93EC0161E0CDDF8C018D81811120
:100600000E946417BE01C8018FDF811106C080E01F
:10061000DF91CF911F910F910895BE01C80188DF2E
:100620008115A9F3BE01C8010E94BF1C811579F391
:10063000BE01C8010E943619811549F3BE01C801E7
:100640000E940D19811519F3BE01C8010E940611FF
:100650008115E9F2BE01C8010E94E00E8115B9F2D0
:10066000BE01C8010E94F20E811589F2BE01C801C7
:100670000E940C0FCDCF21E030E002C0220F331FCB
:100680008A95E2F7C9019BC3CF93C82F81E090E020
:100690000C2E02C0880F991F0A94E2F70E94E40B07
:1006A0008C2FE9DFCF91089581E0089581E00895CE
:1006B000FBCF0895CF93C82F31D38C2FF7DF8C2F2A
:1006C000F7DF8FEF94E32CE0815090402040E1F77A
:1006D00000C00000CF91089581E0ECDF0C940A2067
:1006E00080E0E8DF0C941B2029DF0E94151F1BD03F
:1006F0000C94FF151AD00E94B41621DF0C94191F18
:1007000081E008950895CF93DF93D82FF9DFC82FA4
:10071000811511F08D2FF6DF8C2FDF91CF91089589
:100720000895F1CF089580E0FCCF0E940D1DF9CF10
:10073000CF930E940D1DC82F8091EC018C1771F092
:10074000C093EC010E94DA1F6093ED017093EE01FB
:100750008093EF019093F0018C2FE3DFCF91089508
:10076000ADE0B0E0E6EBF3E00C94E3264887598770
:100770006A877B878C879D87911114D71F8286E0BB
:10078000FE0138969E012F5F3F4FD90101900D92D7
:100790008A95E1F78D8181110CC029813A814B81C5
:1007A0005C816D817E818F8148D62D96E2E00C942C
:1007B000FF26CE010196F7DE8111EFCFF6CFFC01C7
:1007C0002481213019F48081918111C4089561152B
:1007D00021F00E94921A0C94471B0E94D21AFBCF60
:1007E000CF93C82F811581F08450813A78F48C2FF3
:1007F0000E94C11D811521F08C2F0E945E1E5DD7C5
:100800008C2F0E94471E59D7CF9108958C2F805E60
:10081000883048F481E0C1FD84E0C0FD880FC2FD4E
:100820008295A1D6F0CF8C2F855A833030F48C2F4F
:100830008452990B0E944D1DE7CFEC2FE85AEB3103
:1008400050F4F0E0EE0FFF1FEF5CFE4F80819181CE
:100850000E94741DD9CF8C2F8D5C8331A8F661E086
:100860008C2FB5DFD1CF811559F1982F9450913A43
:1008700018F40E945E1E21C7982F905E983050F4A5
:10088000982F81E091FD84E090FD880F92FD829584
:1008900070D6F1CF982F955A933020F480E090E0F5
:1008A0000C944D1D982F985A9B3120F480E090E0D5
:1008B0000C94741D982F9D5C933110F460E087CFE9
:1008C00008951F93CF93DF93182FEB0189DF2097B3
:1008D00031F4812FC8DFDF91CF911F9108958FE907
:1008E0009FE00197F1F700C000002197F0CF60E58D
:1008F00070E0893311F060E070E0E3CF811511F012
:1009000032D6DBC60895811511F033D6D6C60895C8
:10091000A0E0B0E0EEE8F4E00C94DD266C01D62F08
:10092000C72FFC011581068102950F7011D6E82EA4
:100930008115E9F0E12E1115D1F08C2F807F8034E4
:1009400061F08D2F805E8830E0F08C2F807E8032C9
:1009500021F4D230B0F00115A1F080913E0382FF66
:1009600010C082E0CED6F4D591E08927E82EEC2F96
:10097000E295EF70C03C78F5F0E0E552F84D0C944C
:10098000BD26E12CF4CF0C2F0F70C03110F0029572
:10099000007F111581F0011549F08D2F805E8830A0
:1009A00010F0D11105C0802FDED587D68D2F40C025
:1009B000802FEAD5FACF8D2F56DF011561F08D2FEC
:1009C000805E883010F0D11103C0802FD2D502C0D4
:1009D000802FE0D572D6E11409F4B3C0B5D580FDFF
:1009E000B0C0F6011582AAD51AD2C60168D1A6D523
:1009F00024D2A7C08C2F8F70F82EC07FC03219F080
:100A0000F29480EFF822D13038F079F1111509F421
:100A100038C00115C9F0CACF80913E0382FD10C0D5
:100A2000111541F0F11419F08F2D9DD546D680E0B7
:100A3000D7DED1CF80E017DFF11469F28F2DC6CF5A
:100A4000111551F0013018F48F2D58DFC4CF09F083
:100A5000C2CF8F2DBBD5BFCF0111BDCF8F2D53DF9F
:100A60008F2DBFD58F2DA4D5B6CF111521F006300F
:100A700008F0B1CFE9CF053008F0ADCF8F2D43DFBF
:100A8000AACF0115D9F3D93349F48FEF97EE23E0BC
:100A9000815090402040E1F700C000008D2FE3DE40
:100AA0009ACF8C2F869586958370813060F009F0FF
:100AB00092CF8D2F9C2F9370111102C080E090E097
:100AC0000E94741D88CF8D2F9C2F9370111102C02E
:100AD00080E090E00E944D1D7ECF612F8D2F77DE4C
:100AE0007ACF8C2F8370C1F5111128C04D2F4295FC
:100AF00046954770440F440F2D2F2F7030E0042E81
:100B000002C0220F331F0A94E2F780E090E0D4FF86
:100B100009C08FE090E002C0880F991F4A95E2F764
:100B200080959095C695C695C370822B932BC23045
:100B300079F0C33079F0C13049F04AD10E940D1DDF
:100B4000F0DDCDB7DEB7E8E00C94F9263AD1F6CF68
:100B500046D1F4CF34D1F2CF111559F1C0FFEECF09
:100B60004D2F429546954770440F440F2D2F2F70FF
:100B700030E0042E02C0220F331F0A94E2F780E017
:100B800090E0D4FF09C08FE090E002C0880F991F69
:100B90004A95E2F780959095C695C695C370822BCD
:100BA000932BC23061F0C33061F0C13031F06AD1B3
:100BB000C5CF823008F4C2CFD3CF5DD1BFCF69D1CA
:100BC000BDCF1AD1BBCFCF70111529F08C2F27D1F3
:100BD0008D2F94DEB3CF8D2F96DE8C2F2ED1AECFFE
:100BE000D23F31F168F4D03FC1F0D13F89F0111507
:100BF00009F43EC0011509F438C08D2FF1DD9ECFF8
:100C0000D33FE1F0D43F99F780913E0382FD1EC0AF
:100C10008C2F8F71111511F30FC0111539F005309C
:100C200008F08CCF8C2F8F7118D188CF0630F8CF79
:100C30008C2F8F711111D2CFF2D080CF111521F0EE
:100C40008C2F8F71E3D07ACFDED078CF111529F0B9
:100C500063E08C2F8F713ED571CF81E052D5023089
:100C600008F46CCF82E04DD569CF8C2F8F71E4CF23
:100C7000011571F0D93349F48FEF97EE23E08150DD
:100C800090402040E1F700C000008D2FECDD56CFF2
:100C90008C2F8F71A3CF0F931F93CF93DF93EC0112
:100CA000688179818D81ACD18C01FAD087D0B8016F
:100CB000CE012EDEDF91CF911F910F910895CF933A
:100CC000DF93EC018C81811581F0CE018FDC8111E5
:100CD0000FC03ED4811549F08D81811531F080918E
:100CE0003E0382FF02C082E00CD5DF91CF910895D0
:100CF000CE01D1DFCE0168DCF8CF80E090E00E9429
:100D00004D1D80E090E00E94741D4CD4D6D40E940A
:100D1000601B0C94471B0E94751EEFCF32D4FBCF93
:100D2000282F92959F70963099F060F4925F9F7093
:100D3000923030F4203FB1F038F481E0283E38F0B2
:100D400080E008959A5FF3CF81E0243FC9F70895CA
:100D500091E0813F09F090E081E0283E08F080E0DA
:100D6000892B089581E00895FC012481211521F04B
:100D7000808191813CD1D4CF80E00895A6E0B0E09D
:100D8000E4ECF6E00C94E3262696E2E00C94FF26D1
:100D9000A7E0B0E0EEECF6E00C94E3262796E2E064
:100DA0000C94FF260895FECF0895FDCF0895FADF35
:100DB000FCDF809300029093010208950895F7CF1D
:100DC00008952091000230910102822B932BEFCFE6
:100DD000209100023091010282239323E8CF2091D9
:100DE00000023091010282279327E1CFDBCF0895E3
:100DF000FDCF0895D7CF0895FDDFFADF8093FE0180
:100E00009093FF01089580E090E0F6CF21E030E07C
:100E100002C0220F331F8A95E2F7C901EDCF21E00E
:100E200030E002C0220F331F8A95E2F78091FE0165
:100E30009091FF01822B932BDFCF21E030E002C0A5
:100E4000220F331F8A95E2F7209530958091FE019D
:100E50009091FF0182239323CFCF21E030E002C0A5
:100E6000220F331F8A95E2F78091FE019091FF01D6
:100E700082279327C1CF2091FE013091FF01822B61
:100E8000932BBACF2091FE013091FF01822393234F
:100E9000B3CF2091FE013091FF0182279327ACCF81
:100EA0000895CF93C1E061FDC4E060FDCC0F62FD09
:100EB000C29593E0769567959A95E1F7660F771F4F
:100EC000660F771F460F571FFA0140E050E090E091
:100ED0006191DF019C01042E02C0369527950A948A
:100EE000E2F72695220B26272C2326272E934F5FE9
:100EF0005F4F4430510561F7CF910895A82FA77037
:100F000023E0969587952A95E1F7880F991F880F1A
:100F1000991F680F791FFB0140E050E080E02191AC
:100F200030E00A2E02C0369527950A94E2F7217028
:100F3000042E01C0220F0A94EAF7822B4F5F5F4F05
:100F40004430510561F70895262F953060F48430C0
:100F500050F434E0939FB0011124680F711D42EFEB
:100F600051E0822F9ECF0895953060F4843050F484
:100F700044E0949F9001112462EF71E0820F932F5F
:100F8000911DBCCF80E00895CF92DF92FF920F9326
:100F90001F93CF93DF936C010091FE011091FF012D
:100FA0008091000290910102082B192BCFE0D0E034
:100FB00081E090E00C2E02C0880F991F0A94E2F79E
:100FC00080239123892B61F4219790F7F12C8F2DA9
:100FD000DF91CF911F910F91FF90DF90CF900895F7
:100FE000FC2EB6018C2FF4D5019771F3F0CFCF937F
:100FF000DF93EC01C9DFBE01EBD5DF91CF910895FE
:101000001F93CF93DF93EB019091F101911531F094
:10101000CB01EDDFDF91CF911F910895811551F044
:10102000CB01B2DF182F682FCE018EDFBE01812FDA
:10103000CFD5F0CFCB0198DF182FF8CF0F931F93A8
:101040000091020280910302801303C01F910F914F
:10105000089587E0089FF0011124EC5FFD4F208187
:1010600031814281538164817581868191DE0F5F78
:101070001F4F0770E7CF20913C0230913D02409115
:101080003E0250913F026091400270914102809176
:1010900042027ECE80914202803170F48091410202
:1010A000811551F0E09102022091030230913D023E
:1010B00040913C022E1301C00895BF0187E0E89FD4
:1010C000F0011124DF01AC5FBD4F14968C91149791
:1010D000811549F111968C911197831324C08C913D
:1010E000841321C015968C91159781111CC01296FE
:1010F0008D919D91A0913E02B0913F028A1B9B0B66
:10110000883C910580F4809142028F7080618093C9
:101110004202E65FFD4F80818F70806180838CE3A7
:1011200092E0CDDD8BCF6F5F7F4FFB01E770C2CFC9
:10113000E091020290910302E91302C080E0089559
:101140009F0157E0E59FF0011124EC5FFD4F5181B5
:10115000561306C05081581303C05581541305C05F
:101160002F5F3F4FF901E770E7CF81E008958F923D
:101170009F92AF92BF92DF92EF92FF920F931F93D5
:10118000CF93DF93CDB7DEB72D970FB6F894DEBFC0
:101190000FBECDBF8C0186E0F801DE0118960190EC
:1011A0000D928A95E1F7F801F58084819CE3892E00
:1011B00092E0992E90914002911117C0811509F487
:1011C000EFC0F11409F42EC1C801CEDD811509F478
:1011D00029C187E0F801D40101900D928A95E1F7C9
:1011E000C401EDDA57DF47DFDBC0E080A280B380C7
:1011F000D090410220913E0230913F02A501421B56
:10120000530BD11409F4CFC0483C510508F09EC0DF
:10121000811509F4C5C090913D02918080914202F0
:10122000803108F065C0991226C090913C029E1151
:1012300022C0F11057C08F708061809342021BDF83
:101240008CE392E03CDD80914202F8018683F12C30
:101250008F2D2D960FB6F894DEBF0FBECDBFDF9158
:10126000CF911F910F91FF90EF90DF90BF90AF90C3
:101270009F908F900895F11035C040E0692D8E2D1C
:1012800057DF40E0692D8E2D53DFF82E8111DFCF1F
:1012900088859985ACDE292F22952F70903450F4E3
:1012A0009F70223078F0911591F0F801968190317D
:1012B00070F4CECF2A5F2F70223070F0C801FFDCAF
:1012C000FD2CC6CF911519F0811509F4C1CF805EB0
:1012D000883008F4BDCFF2CF803F08F4B9CF815FEA
:1012E0008330F7CF80914202816080934202AFCF7A
:1012F000991207C090913C029E1103C0F11409F4A9
:1013000073C0C80131DD811509F48CC0F11409F4F2
:1013100089C080914202803280F020913C0230915D
:101320003D0229833A83AB82BC82909140029D8327
:101330001E828F83CE010196C2DC87E0F801ACE308
:10134000B2E001900D928A95E1F74CCF9091420264
:10135000903188F4488559856A857B858C859D8583
:101360000DDD8CE392E0ABDCF40187E011928A950D
:10137000E9F781DE6CCF811599F020913D028181E2
:101380002813BFCF80913C028E11BBCFF110B9CF93
:101390009683C80194DCF40187E011928A95E9F7FD
:1013A000FF24F39455CF483C510508F03EC0811509
:1013B000B9F3F114B9F190913D028181981329C0DC
:1013C00080913C028E1125C08091420280FD18C0A0
:1013D0008031B0F08683807F803F39F08681982FFE
:1013E000907F905F8F70892B8683C80168DC87E0CF
:1013F000F801ACE3B2E001900D928A95E1F7F3CEEB
:1014000087E0F801ACE3B2E001900D928A95E1F734
:10141000C7CFC801A9DC811190CF809142028160C1
:1014200080934202C8014BDCBBCF488559856A8551
:101430007B858C859D85A2DC97CFAEE0B0E0E3E2B2
:10144000FAE00C94E226288739874A875B876C8705
:101450007D878E87CE0108968ADE6C85811599F08E
:10146000611539F0288539854A855B857D858E85AE
:101470008FDC809102029091030289133DC02E9669
:10148000E3E00C94FE2687E09E01285F3F4FF901C0
:1014900027503109D90101900D928A95E1F7611524
:1014A00041F3A09103028A2F90E08395877090E02A
:1014B000AC01209102022417150691F097E09A9F43
:1014C000D0011124AC5FBD4F9E012F5F3F4FF9014A
:1014D00001900D929A95E1F740930302AFDDC9CFD9
:1014E0001DDC1092030210920202ECE3F2E087E0AE
:1014F00011928A95E9F7BDCF17E0189FC00111241A
:101500008C5F9D4F34DE811509F4B9CFE091020262
:101510001E9FF0011124EC5FFD4F2081318142813B
:10152000538164817581868133DC809102029091C0
:10153000030201968770809302029BCF80916B0219
:10154000869586958695089580916B02877008959B
:1015500090916B02977081E0911101C080E0089535
:1015600080919702089590919702982B90939702FB
:1015700008958095982F80919702892380939702F0
:10158000089510929702089590919602982B909347
:10159000960208958095982F8091960289238093D2
:1015A000960208951092960208950895FECF089528
:1015B00090916C02292F282329F08095892380930C
:1015C0006C02F4CF08950895FECF089590916D02B6
:1015D000292F2823281721F0982B90936D02F4CF00
:1015E000089590916D02292F282329F08095892351
:1015F00080936D02E9CF089580916D02811521F0ED
:1016000010926D0280E0E0CF0895CF93C0919702D1
:1016100080919602C82B80916D02811529F0C82B0C
:101620000E949B1D8111E8DF8C2FCF910895CF93ED
:10163000DF93C0910601D0910701E7DF8883C09155
:101640000601D091070148E050E063E672E0CE0168
:101650000E946A27892B59F088E0FE01A3E6B2E0D8
:1016600001900D928A95E1F7CE010E941C1DDF9139
:10167000CF910895CF93DF93C0910401D0910501DC
:10168000C4DF8983C0910401D091050140E250E09C
:1016900063E472E0CE010E946A27892B59F080E250
:1016A000FE01A3E4B2E001900D928A95E1F7CE012C
:1016B0000E94291DDF91CF9108950E94061D81157A
:1016C00029F080913D0387FF01C0D4CFB0CF0895AA
:1016D000FECF089590913E0392FF0EC0982F990F70
:1016E000990F990F962B90936B0299DB80916B0267
:1016F000869586958695ECCF92CB10926B0280E012
:10170000E7CF90916B028095892380936B02282FFD
:10171000277059F4891749F090913E0392FF05C054
:1017200086958695869589DBE8CF089590913E034E
:1017300092FB222720F9281749F080FB92F9909319
:101740003E038DE393E044D082E0DBCF08958091A7
:101750003E03002482FF0394802DE8CF81E0E6CF92
:1017600080E0E4CF80E090E0BC010AC480E090E03B
:10177000BC0100D4F7CFA3E0B0E0E1ECFBE00C94B7
:10178000E32664D36FD31B82CE01039682D381E01C
:1017900090E0809300021092010287D3198284E1C5
:1017A0008A83CE01019692D32BD6E0DF2396E2E026
:1017B0000C94FF26E0CF08955BC3089548C30895B5
:1017C0005DC308956CC3089570C3089573C30895ED
:1017D0007DC3089582C30895B4C30895D7C30895FF
:1017E000A6E0B0E0E6EFFBE00C94E1260E94CE1FFD
:1017F0008C0180919802909199028017910779F05D
:1018000019821A820E94CE1FBC0149815A8180E050
:1018100090E00E94B00300939802109399022696DC
:10182000E4E00C94FD260E94DA1F6093A2027093FC
:10183000A3028093A4029093A50260939E027093EA
:101840009F028093A0029093A10208950E94DA1F44
:101850006093A2027093A3028093A4029093A502C6
:1018600060939A0270939B0280939C0290939D02D6
:10187000089508950895FDCF08950895FEDFFBCFE4
:101880000895FECF08950895FEDFFBCF8EED9EE014
:10189000B8D4F0DFF3CF81E0089581E00895FBCF65
:1018A0000895089508950895FCDFFCDFFCCF86DFDE
:1018B000811101C07FDF86EA92E082DF8DE393E051
:1018C00085DF0E940B197EDF7ADA8091FE0190910C
:1018D000FF018ECA0E94C51F0E946A17FAD3E7DF74
:1018E0000E94041D0E9490030E948816CDCFA6E09E
:1018F000B0E0EDE7FCE00C94DA26CFDF811111C0F7
:101900006FDF0E94051D0E9465170E94DA17811182
:101910009DDF0E94811B0E9498032696EBE00C94A9
:10192000F626E6D388E3A82E83E0B82E750110E0F2
:10193000F7010081812F35D31F5F153009F445C0B1
:101940009FEFE91AF90A081799F38091A60281FD21
:101950002ED3A5DF982E10E0812F23D3F82EF5018A
:1019600081915F01F81661F18F25D82E00E0EE24F9
:10197000E3948D2D8E21F1F0CC24C3948F2D8E21F4
:1019800009F4C12C911489F0602F812F0E943B1F14
:1019900081110BC009831A830E94CE1FBC014981AB
:1019A0005A8181E09C2D0E94B0034C2D602F812F25
:1019B0000E944F1F0F5FEE0C0430D9F6F501F29232
:1019C0001F5F153049F62FDF9CCF0813BECF98CF8D
:1019D0000F931F93CF93DF93FDD0EC01D23508F026
:1019E00050C0D03508F0C8C0C03ED10530F5CD3C60
:1019F000D10508F09DC0C83AD10578F4C53AD105A3
:101A000008F093C0C130D105B1F1CE010497813AFD
:101A1000910588F1C0E0D0E02EC0CE01885A91092E
:101A20004B97C0F7C85AD0E0CC0FDD1FC959DE4F25
:101A30000990D881C02DD4641EC0D034A8F4D0320F
:101A400008F0ADC0C83ED105B0F0CE0191509F3135
:101A500008F78D2F62D1082F8C2F90E0BBD0D02FAC
:101A6000DF71C82FD92B07C08C2F90E0B3D0DF7067
:101A7000C82FD92BD06ACE01DF91CF911F910F9142
:101A80000895C03882E5D807B8F5C03682E5D80792
:101A900008F056C0C03482E5D807C8F4C03282E5E9
:101AA000D80708F047C08C2F8695869520E2829F44
:101AB000C0011124C37021E030E002C0220F331FA7
:101AC000CA95E2F7E901C82BD92BDD68D4CF8C2F5A
:101AD00086958695877020E2829FC0011124C3708D
:101AE00021E030E002C0220F331FCA95E2F7E9017E
:101AF000C82BD92BDC68BFCFC03C82E5D80750F497
:101B00008C2F8F71C03AD24580F5982F84EF906A60
:101B1000EC01B1CFCE01805C9245809708F07ACF7E
:101B2000DC2FDF71C0EFD06AA6CFA497D064A3CF1B
:101B3000D065A1CF8C2F8F71D82FC1EFD06A9BCFEA
:101B40008C2F86958695877020E2829FC001112494
:101B5000C37021E030E002C0220F331FCA95E2F7C4
:101B6000E901C82BD92BDA6886CFD7D0982F80E02F
:101B70009F71EC01D0627FCF8C2F8F71CED053E05C
:101B8000CC0FDD1F5A95E1F7DF70282F84FF04C0CA
:101B900090E1899F90011124C22FD0696CCF8D2FC5
:101BA0008F71BBD0082F8C2F90E014D0302F3F7155
:101BB000282F392B3062E9015ECF462F753028F48B
:101BC000643018F4672F0C948C0280E090E0089544
:101BD000F4DFFECE803E9105D1F1C8F4813391054A
:101BE00009F481C048F48932910509F471C08A3240
:101BF000910509F47FC0089589339105E1F0823899
:101C00009105C9F08533910509F45DC00895843EBE
:101C10009105D1F148F4823E910531F1833E910561
:101C200041F181EE90E00895863E9105C1F1873E35
:101C30009105F1F1089520913D03237009F064C0EE
:101C400020913E0323FF14C089E290E00895209183
:101C50003D0320FD45C030913E0330FF09C024FD07
:101C600024C083EE90E0089520913D0322FDF7CF3C
:101C7000089520913D0322FD44C030913E0330FD84
:101C800043C024FFF5CF11C020913E0321FFF0CFC8
:101C900080913D0384FD09C087EE90E00895209176
:101CA0003D0323FFE5CF24FFF7CF80E090E00895C8
:101CB00020913D0323FD2BC030913E0331FFE1CF46
:101CC00084EE90E0089520913D0325FFD1CFBCCF55
:101CD00020913D0325FD1EC020913E0323FFC8CF68
:101CE00089E390E0089520913D0326FFC1CF8AE269
:101CF00090E0089520913D0326FFBACF81E390E064
:101D0000089582EE90E0089580EE90E0089586EECA
:101D100090E0089585E390E0089590913D0392FF4F
:101D200010C041E0282F2471243009F040E031E058
:101D3000282F2871283009F030E0431711F02CE0EB
:101D4000822793FF10C041E0282F2471243109F02D
:101D500040E031E0282F2871283109F030E04317A6
:101D600011F02CE0822730913E0330FF10C051E08B
:101D7000282F2171213009F050E041E0282F2871EF
:101D8000283009F040E0541711F029E0822731FF94
:101D900010C041E0282F2171213109F040E031E0ED
:101DA000282F2871283109F030E0431711F029E07D
:101DB000822794FF02C083FD877E089580E0089506
:101DC000CF939C01205E3245C1E02032310538F4CA
:101DD000FB01C581C11103C08F710E9444038C2F88
:101DE000CF9108959C01FB018581811599F02B35D8
:101DF0009CE7390769F02C359CE7390721F02A3533
:101E00003C4721F00895A3DC80E00895A7DCFCCFD7
:101E1000A7DCFACF81E008959C01FB018581811543
:101E200099F021309CE7390761F023309CE73907AE
:101E300039F021153C4749F40E946C0380E0089575
:101E4000BBDC0E947003FACF81E00895089580E022
:101E500090E00E9484279C0181E0233E3E4F09F0E0
:101E600080E0089563EE7EEF80E090E00C94A3277D
:101E70006FEF7FEF80E090E00C94A327CF93DF9388
:101E8000EC0182E090E00E9477278883DF91CF9178
:101E90000895FC01608182E090E00C94892783E042
:101EA00090E00E94772790E00895682F83E090E00B
:101EB0000C948927CF93DF93EC0184E090E00E949B
:101EC000842788839983DF91CF910895FC016081F5
:101ED000718184E090E00C94A3278F929F92AF923F
:101EE000BF92CF92DF92EF92FF920F93CF93DF9347
:101EF000EC0188E090E00E947F274B015C01688341
:101F000099828A83BB821C821D821E821F8283E289
:101F100090E00E9477279401A50188823983AA82E4
:101F20005B838C831D821E821F82DF91CF910F9174
:101F3000FF90EF90DF90CF90BF90AF909F908F90E9
:101F400008950F93CF93DF93EC01488159816A8103
:101F50007B8188E090E00E949B276C81262F60E0C7
:101F600070E0CB01622F83E20E948927DF91CF913D
:101F70000F910895AB01BC018FE090E00C949B277A
:101F8000AB01BC0183E190E00C949B27682F8EE0AD
:101F900090E00C9489270895FECF08950895FECF10
:101FA0000895E82FF0E0EC5BFC4F808108950895E0
:101FB00080EA8A95F1F7089500C00895F9CF089551
:101FC000F894E82FE295EF70F0E041A18F7021E0E6
:101FD00001C0220F8A95EAF7922F9095942391A33E
:101FE00092A1822F892B82A378940895CF93DF93B7
:101FF000C1EAD1E089918F3F09F0E2DF81E0C63A82
:10200000D807C1F7CDE9D1E089918F3F09F0D8DF3A
:1020100081E0C13AD807C1F7DF91CF910895A0E0E0
:10202000B0E0E5E1F0E10C94DD266C01E62EC62F70
:10203000D0E08E010F551E4FF80180818F3F09F4CB
:1020400041C0F894E82FE295EF70F0E091A18F7015
:1020500021E001C0220F8A95EAF7892F822B81A304
:1020600082A12095282322A37894A6DFADE9B1E0D0
:1020700031E0F12C2D912F3F79F0E22FE295EF70B6
:10208000E05EF0E0808190E02F7002C0959587952A
:102090002A95E2F780FF1BC080E0F82A330F81E029
:1020A000A13AB80739F7F80180818F3F09F088DF3E
:1020B00061E0F11001C060E08E2D80DFF601EC0FD1
:1020C000FD1FF082CDB7DEB7E8E00C94F926832F30
:1020D000E4CF8CDFE4E4F3E085E011928A95E9F740
:1020E000EFE3F3E085E011928A95E9F73CD054CF15
:1020F000A5E0B0E0EEE7F0E10C94E026FE013196B9
:10210000DF0185E01D928A95E9F710E00E2FFF2E82
:10211000612F802F9F2D83DF812F8F5F182F8530B8
:10212000B9F745E050E0602F7F2D8FE393E00E94E8
:102130006A2741E0892B69F440E064E473E08FE3AF
:1021400093E012D0182F2BDF812F2596E5E00C9419
:10215000FC2685E0E02FFF2DAFE3B3E001900D9268
:102160008A95E1F7EACF0895EF92FF920F931F93BC
:10217000CF93DF938C017B01C42F411579F081E06F
:102180008093A9020E94CE1F8093A7029093A80279
:1021900080E0CDB7DEB7E6E00C94FB26D091A90233
:1021A000D115B1F38091A7029091A8020E945F1F00
:1021B000059770F345E050E0B801C7010E946A2717
:1021C000892B41F085E0F801D70101900D928A95A5
:1021D000E1F7CD2F1092A9028C2FDBCF88CB089589
:1021E0000E94681F0E944C2151DB0E94642172DB17
:1021F0000E946D210E947021F1DF0E94862154DB34
:10220000F9CF8093EA019093EB010895CF93DF9388
:10221000EC01FB018581811104C081E0DF91CF9148
:1022200008959ED98272FE01E052F847EB30F10525
:10223000A0F7E951F84D0C94BD2662D580E0EECFB1
:10224000811521F051D5FACF8115E1F341D5F6CFB3
:10225000811521F017D2F2CF8115E1F309D2EECF2B
:10226000811521F029D2EACF8115E1F318D2E6CF0A
:10227000811521F03BD2E2CF8115E1F32AD2DECFE6
:10228000811521F0E8D0DACF8115E1F3D5D0D6CF92
:10229000A0E0B0E0EEE4F1E10C94DC26062FB72ECE
:1022A000E82F71110EC0411521F0F0E0EA5EFD4FFC
:1022B000E4916E2F7E2F8E2FCDB7DEB7E9E00C9420
:1022C000F826411521F0F0E0EA5EFD4FE49186E04A
:1022D000089FE00111242FEF30E0CE01B9010E94E8
:1022E0007426AB01C801880F991FF5E5F49FB00172
:1022F000F59F700D1124861B682F660F680FC901AA
:102300008B199109E89FD001E99FB00D11248B2F03
:10231000B69E60011124CD2CD12C89010C191D0908
:102320006801E09F7001E19FF00C112443305105DA
:1023300051F18901061B1109B09E6001B19ED00CBC
:102340001124CD2CD12C2C193D09E29F8001E39F53
:10235000100D1124712FCC3FD34050F44130510562
:10236000B1F04230510561F47E2FEB2F812F08C070
:102370004430510579F04630510511F07B2F8F2DF7
:102380006E2FE82F98CF7F2D8E2FEB2FF9CF7E2F3A
:10239000EF2DF6CF8E2FE12F7B2FF2CF41E078CFBC
:1023A0000895FCCF089590910B01291B922FE09185
:1023B000D301F091D401242F462F682F892F90E06C
:1023C00009950895CF93DF93762FE901682F842F25
:1023D000E8DF962F672F9E01482F892FE4DFDF91DA
:1023E000CF91089580914903843028F483708460EC
:1023F0008093490308958C3AE8F38370886AF8CF94
:1024000085E08093490310924A038FEF80934B033A
:1024100080934C0310924D0389E493E0DDC99091C1
:102420004D03933018F49F5F90934D03811519F07D
:1024300089E493E0D1C9089581E0F1CF90914D03F3
:10244000911519F0915090934D03811519F089E47D
:1024500093E0C2C9089581E0F1CF0F931F93CF930A
:102460008091490380FF09C0E091D701F091D80124
:102470000995CF911F910F910895C0910D01809101
:10248000D3019091D4018C0180910E01C81760F79F
:1024900080910B019C2F981B20E040E060E0892F89
:1024A00090E0F8010995CF5FEFCFEF92FF920F9385
:1024B0001F93CF93DF93D82F162F042F80914903BA
:1024C00080FF0CC0C0910D018091D3019091D40187
:1024D0007C0180910E01C81730F0BFDFCDB7DEB7A9
:1024E000E6E00C94FB2680910B019C2F981B202F7B
:1024F000412F6D2F892F90E0F7010995CF5FE9CF2C
:10250000762F9091490390FF08C0682F842F49DFF0
:10251000962F672F482F892FC8CF0895CF93DF9329
:10252000EC01EC81F0E0EF5EFE4F4491E9E4F3E072
:1025300062818181E5DF8C818F5F8C83DF91CF9118
:102540000895CF93DF93EC01E9E4F3E043816281E6
:102550008C81D6DF8C818F5F8C83DF91CF91089542
:10256000CF93DF93EC0120914C039C81892F8170E4
:1025700090FD822F692F627091FD622F492F447068
:1025800092FD422F92DF8C81019687708C83DF91C0
:10259000CF910895A0E0B0E0E0EDF2E10C94DE26EA
:1025A000D82FE62EF42ED22E9091490390FF21C011
:1025B000092F06950695E02FF0E0EA55FE4F808141
:1025C000809305039C7F9430C9F46D2F7E2D842F5A
:1025D000E8DE962F672F482F892F67DFD0934A03B5
:1025E000E0924B03F0924C03D11419F089E493E08C
:1025F000F3D8CDB7DEB7E7E00C94FA26823019F4B1
:10260000F0904C03EBCF863019F4D0914A03E6CF1B
:102610008930D9F3893111F70951E02FE695F0E0BF
:10262000EF5EFD4FC49110E060910F01161710F09E
:1026300014DFD4CF1C9FC001112470E00E947426C7
:10264000862F8D0F00FF02C08D2F861B20910D015C
:10265000210F3327331F4F2D6E2DB4DE1F5FE4CFC4
:10266000E9E4F3E0282F438162818181885F92CF82
:1026700081E0F6CFE9E4F3E0282F43816281818194
:10268000885088CF81E0F6CFE9E4F3E0628121E170
:10269000620F08F46FEF282F438181817BCF81E0A7
:1026A000F3CFE9E4F3E0628121E1621B08F460E02A
:1026B000282F438181816ECF81E0F3CFE9E4F3E0FD
:1026C000438121E1420F08F44FEF282F628181817D
:1026D00061CF81E0F3CFE9E4F3E0438121E1421BE4
:1026E00008F440E0282F6281818154CF81E0F3CF4C
:1026F00020E050CF0F931F93CF938C01C0E06091E7
:102700000F01C61768F0A9DEF8018481928190FF5D
:102710001DC08F5FF8018483CF911F910F910895A1
:1027200020910D012C0F3327331F70E08FEF90E0C5
:102730000E948826F801848140914C03C69F800D39
:10274000112460914B033EDECF5FD9CF8150E2CFA1
:10275000AF92BF92DF92EF92FF920F931F93CF93AE
:10276000DF93FC018281D1E080FDDFEFC0E080914A
:10277000D3019091D4015C0180910F01C817B8F08A
:102780006CDE8091AB02D13009F04DC0811102C0E6
:1027900080910F0181508093AB02DF91CF911F9107
:1027A0000F91FF90EF90DF90BF90AF9008958091D0
:1027B0000D0190910B01891B8C0F20E040E060E03F
:1027C00090E0F501099504E010E0D12CEC2EF12CFD
:1027D0008091AB028D0D813104F18F70082E001CA9
:1027E00000088E150F0499F480910D019701280FB0
:1027F000311D40914C030403A001112455954795C8
:102800005595479560914B0380914A03DBDDDD0EC2
:1028100001501040E9F6CF5FAFCF87FFDFCF909137
:102820000F01890FDBCF90E0019660910F0170E0FE
:102830000E948826B0CF0F931F93CF93C0910D01B4
:102840008091D3019091D4018C0180910E01C81721
:1028500050F1C0E08091D3019091D4018C0160913E
:102860000F01C61768F1F9DD809109019091AA0264
:10287000980F9093AA0220910A01280F20930A0131
:10288000121654F420910F012150330B092E001C15
:102890000008921703061CF0819580930901CF91DF
:1028A0001F910F91089580910B019C2F981B20E0A0
:1028B00040E060E0892F90E0F8010995CF5FC5CF37
:1028C000EC2FF0E070E0CF010E94882620910D01EE
:1028D000820F9091AA02092E001C0008E917F0054A
:1028E0009CF090910A01092E001C00089E170F060B
:1028F0005CF0282F30E040914C0360914B038091B5
:102900004A0360DDCF5FABCF90910B01891B20E0C4
:1029100040E060E090E0F8010995F4CFA0E0B0E07D
:10292000E4E9F4E10C94DB26EC01FC812F2F30E08C
:10293000D9010E9459269B01AC010E94C9267B0146
:102940008C0180E290E08F1B9109FC01A5E59701C5
:10295000A8010E94C9265B016C019F01DF010E9452
:1029600053269B010E94C3269B01AC012E0D3F1DE7
:10297000401F511FB501C6010E949B26022F30E067
:102980000A3220F5A901440F551F420F531F5595D8
:102990004795142F1095F12C85E5801BE82E80912A
:1029A0000F01F81600F159DD9C8181E0911519F0B5
:1029B000903219F48FEF8093080180910801890FFC
:1029C0008C83CDB7DEB7EAE00C94F72685E590E07E
:1029D000821B930BAC01440F551F480F591FBAF6C9
:1029E0004F5F5F4FD4CF8E2DF1FC802F20910D01D2
:1029F0002F0D3327331F412F60914B03E3DCF394FA
:102A0000CECF0F931F93CF93DF938C01C0E0D0E024
:102A100090910F01C917D1055CF01FDDF801848189
:102A2000019681708483DF91CF911F910F9108955A
:102A3000F801448180910D019E01280F311D6091A4
:102A40004B0380914A039695C917D1053CF4411573
:102A500039F040914C03B6DC2196DACF4115C9F329
:102A600040E0F9CFA0E0B0E0E8E3F5E10C94D72630
:102A7000FC018281882E948081E08483E1E1F1E091
:102A8000A490E0E9F1E0E491C0914C03C695C158EF
:102A9000D0E0CC0FDD1FED2EF12CB12C05E01FEFA7
:102AA000EA198E2F90E03C0180910F01B81630F0AA
:102AB000D4DCCDB7DEB7EEE00C94F326CB2CD12CD2
:102AC000882D833058F40B9DF0011124E455FD4FFF
:102AD00080914A03808380914B03818391101BC0B6
:102AE0000C9DF0010D9DF00D1124E455FD4F138256
:102AF000128280910D019601280F311D0C9DF0016D
:102B00000D9DF00D1124E455FD4F428161818081BE
:102B100059DCB394C9CF0C9DE0010D9DD00D11245B
:102B2000C455DD4F8B818115E1F081508B83189F57
:102B3000C00111246C8170E00E94742670E0FB01DA
:102B4000EF5EFE4F84918A19189FC0011124B301D2
:102B50000E94742680914C03689FB00111247A83EF
:102B6000C8CF0E9451276FEF70E00E9488268E1513
:102B70009F050CF0BECF882D833090F00E94512726
:102B80006FEF70E00E94882688830E945127209171
:102B90004B032695622F70E00E948826280F298318
:102BA0000C9DF0010D9DF00D1124E455FD4F128296
:102BB00080914C03893C58F088EC0C9DF0010D9DF0
:102BC000F00D1124E455FD4F8483838392CF84312B
:102BD000A0F784E1F2CF809149038E7F809349036F
:102BE00089E493E00E94EC0B1092060336CC8091AE
:102BF00049038E7F80934903109206032ECC1092D6
:102C0000060380910303811109C081E080930303CF
:102C100080914903817080930203E9CF0895609108
:102C200049036695669570E04BE050E080E191E0E5
:102C30000E945D27892B19F481E0809306030E948E
:102C4000CE1F8093FC029093FD020895909149035A
:102C500090FF2CC0811559F18B3258F58F73880F76
:102C6000880F909149039370892B809349036115D4
:102C700021F089E493E00E94EC0B60914903669592
:102C8000669570E04BE050E080E191E00E945D27A6
:102C9000892B89F01092060381E08093FF02409116
:102CA0004C0360914B0380914A0322CD089581E04B
:102CB000D6CF8AE2D4CFB3DFEFCF682F909149030C
:102CC00096959695892F8F5F8B3208F081E0BECF65
:102CD00081E0F3CF682F9091490396959695892FBF
:102CE000815009F48AE2B2CF81E0F4CF61E0AECF47
:102CF0008091490381608093490386958695F6CF3C
:102D00008091490380FF01C066CFF2CF60E09ECF83
:102D10008091040381111FC089E493E00E94EA0BB3
:102D200080914903843028F46BDB89E493E00E94AE
:102D3000EA0B58DB10920603E091D101F091D20129
:102D400009958091490380FF03C086958695DEDF53
:102D500081E080930403089580914903816080930A
:102D6000490386958695D2CF109203038091020382
:102D70008111F2DF54CF0F931F93CF93DF93809194
:102D80000603811509F441C080910503E0914903D0
:102D9000E695E695E81BE093FE02853109F48BC0C9
:102DA00008F044C0893009F47CC0A0F5823009F4F1
:102DB00066C0863009F46CC0C0EDD7E000ED11E1CB
:102DC0008091FF02811561F01092FF020E94CE1FD8
:102DD0008093FC029093FD02109200031092010375
:102DE0000E94CE1F2091FC023091FD02821B930BAA
:102DF0008F3F9F4750F42C0F3D1F2093FC023093D0
:102E0000FD028CEF92E0F8010995DF91CF911F91BF
:102E10000F9108958F3081F6E695F0E0EC5FFE4F5C
:102E2000E491CE2FD0E008EA13E1CACFC4EFD1E09D
:102E300001E015E1843221F288F4C8E2D0E00EE826
:102E400014E1883109F4BCCF833209F0B5CFEFEF3C
:102E5000F0E0C591D59100EB12E1B2CF853209F0D7
:102E6000ABCF8E2F63E00E946826E92FF0E0E4509C
:102E7000FF4FE491CE2FD0E002E315E1A1CFF0E0C7
:102E8000E35FFE4FE491CE2FD0E00EE812E198CF41
:102E9000F0E0E65FFE4FE491CE2FD0E001EA12E1D0
:102EA0008FCFE695F0E0E95FFE4FE491CE2FD0E0C2
:102EB0000AE713E185CFF0E0EF5FFE4FE491CE2FFC
:102EC000D0E00BE114E17CCF089555CF08950C9428
:102ED0004B0C0895E8E0F3E088E011928A95E9F759
:102EE000E3C0FC01228130E02395237030E0938120
:102EF00081E09217130609F080E008950F931F9365
:102F0000CF93DF93EC01162F042FEBDF811114C058
:102F10008A81FE01E80FF11D912F00FB97F9948340
:102F20008F5F83708A8388818F5F888381E0DF91E0
:102F3000CF911F910F91089580E0F9CFFC01A381FB
:102F400082818A17B1F0AE0FBF2FB11D14968C91FC
:102F500087FB992790F98F77DB018C93DA019C939B
:102F600083818F5F8370838381818F5F818381E021
:102F7000089580E00895462F682F88E093E0BECF43
:102F8000AB01BC0188E093E0D9CF81E00895CF93F5
:102F9000DF93D62FFADFC82F811541F06AE070E089
:102FA00089EAD11101C08AEA0E9461048C2FDF9165
:102FB000CF910895A2E0B0E0E0EEF7E10C94E126B5
:102FC00080910703811551F01092070380910A0345
:102FD00080930B0380910803809309039FD077DFD0
:102FE000182F811569F010E004C06981182F8A81BB
:102FF000CEDFCE010196BC010196C2DF8111F5CF73
:10300000812F2296E4E00C94FD268FE891E0019751
:10301000F1F700C00000089540B385EF861B8F7064
:1030200021E001C0220F8A95EAF7922F9095942310
:1030300090BB91B3822F892B81BB08958FB190E013
:1030400025EF261B2F7002C0959587952A95E2F7EC
:10305000817008950895CF93DF93C0E080911003AD
:10306000C81750F0D2DFC0E080911003C81760F09D
:10307000F1DFDF91CF91089560E08C2FCDDF61E02B
:103080008C2FCADFCF5FEACF60E08C2FD7DFD82F3D
:1030900061E08C2FD3DFEC2FF0E0EE5EFC4F880F69
:1030A0008D2B8083CF5FE0CF81E080931003D3CF5F
:1030B0001F93CF93DF93182F440F642BC82FD0E0BA
:1030C000DE01AE5EBC4FEC918E2F8370681711F15C
:1030D000EE0FEE0FE62BEC93EF70F0E0E752FE4FB1
:1030E000CF5EDC4F80819881890F888384301CF00B
:1030F00060E0812F40DF88818D3F1CF461E0812FEB
:103100003ADF8881982F990F990B64E070E00E9454
:1031100088268883DF91CF911F910895CF93DF9305
:10312000C0E080911003C81718F0DF91CF91089587
:1031300061E08C2F83DFD82F60E08C2F7FDF4D2F55
:10314000682F8C2FB5DFCF5FECCF549A0895FC0128
:10315000EE0FFF1FE80FF91FEF5AFC4F618340830A
:1031600022830895FF920F931F93CF93DF93182F1D
:10317000062FF42EC0E0D0E02F2D402F612FCE017E
:10318000E6DF2196C031D105B9F7CDB7DEB7E5E06E
:103190000C94FC263BB13F7E2BB120614FB7F894D5
:1031A00081E593E0FC010196508168E02BB90000B5
:1031B00000C057FF3BB9550F000000C000C000C061
:1031C0003BB900C06A9591F753E08138950751F7F4
:1031D0004FBF8FE594E00197F1F700C0000008951C
:1031E0000C94DC0B089580E00E94D10F817008954B
:1031F0000E9478108FEF96E721E0815090402040A8
:10320000E1F700C000000E947810EDDF811511F099
:10321000E7DF00C70895ECCF0895CF93DF93EB016C
:1032200086319C4709F50E94B00A9D81911599F05D
:103230008A7A91E0811101C090E090931303811587
:1032400041F085E324D50E945D0B80E0DF91CF91B2
:10325000089589E2F7CF80911303811519F085E372
:103260002DD5F1CF89E2FCCF81E0F0CFCF93DF9372
:10327000EC01FB018581811509F4CBC09E0130571B
:103280002332310508F0ABC08DE393E00E94E60BDA
:10329000FE01E150F047E232F10520F4EE50F84D26
:1032A0000C94BD2680913D03816080933D0390C0C6
:1032B00080913E03886080933E038AC080913D03E5
:1032C0008260F3CF80913D038460EFCF80913D0316
:1032D0008860EBCF80913E038160EDCF80913E030B
:1032E0008260E9CF80913D038061DFCF80913D0313
:1032F0008062DBCF80913D038064D7CF0E948E0631
:1033000080913D038068D1CF80913D038C60CDCF0B
:1033100080913E038360CFCF80913D038E7FC5CFE8
:1033200080913E03877FC7CF80913D038D7FBDCFC6
:1033300080913D038B7FB9CF80913D03877FB5CFCF
:1033400080913E038E7FB7CF80913E038D7FB3CFB8
:1033500080913D038F7EA9CF80913D038F7DA5CFC6
:1033600080913D038F7BA1CF0E948E0680913D030B
:103370008F779BCF80913D03837F97CF80913E03D2
:103380008C7F99CF90913D03892F8B7F92FF846032
:10339000877F92FF886089CF80913E03982F909518
:1033A00090FB80F990FB81F986CF90913D03892FA6
:1033B0008F7B96FF806479CF0E948E0690913D03AB
:1033C000892F97FB87F9805870CF81E00E94EE0B20
:1033D0008DE393E00E94E80B0E948E0680E0DF916F
:1033E000CF91089580E0F2CF90913D03892F8F7E99
:1033F00094FF80615ACF90913D03892F8E7F90FF7B
:10340000816053CF90913E03892F877F93FF88601F
:1034100052CF81E0E4CF382F25EB3203C0011124D5
:1034200097FF04C080589109892F089580589F4FB5
:10343000FBCF80911A0380FF0DC06091200170E0E6
:10344000660F771F6038710588F56115710581F188
:10345000862F089581FF07C06091200184E0689F56
:10346000B0011124EFCF82FF04C06091200188E0F9
:10347000F6CF909119039115B9F060911F018091D9
:103480002001961728F098E0899FB0011124DACF27
:10349000899FC001112423E0880F991F2A95E1F725
:1034A00070E00E948826CECF68E0D2CF8FE70895E3
:1034B00081E0089580911A0380FF0CC060911C0187
:1034C00070E075956795759567956115710541F182
:1034D000862F089581FF06C060911C0170E07595EC
:1034E0006795F3CF60911C0182FD0BC0909118038A
:1034F0009115A1F060911B0180911C01961738F085
:10350000682F70E06038710500F38FE70895899F98
:10351000C001112470E00E948826F4CF61E0D8CF6A
:1035200081E00895E82FED5CE33198F5F0E0EC5E82
:10353000F74D0C94BD267DDF819580931E03089581
:1035400078DFFBCF76DF819580931D03089571DFCF
:10355000FBCFB0DF80931F030895ACDF8195FACFD6
:10356000A9DF8195809320030895A4DFFBCF815DBF
:10357000990B21E001C0220F8A95EAF780911C0384
:10358000822B80931C03089580911A03816080939D
:103590001A03089580911A038260F9CF80911A036B
:1035A0008460F5CF40911D038D3C59F480911E033A
:1035B00087FF0DC010921E03411559F41092190394
:1035C00008C08E3C81F480911E0318169CF34115AF
:1035D00081F080911F0390912003892B09F056C040
:1035E0001092180308958F3C41F447FFF0CF1092DA
:1035F0001D0380911E038115E0CF803D19F4141640
:10360000B4F3E5CF90911F03893D29F41916FCF618
:1036100010921F03DCCF8A3D19F497FFD8CFF8CF63
:10362000909120038B3D29F497FFD1CF1092200376
:10363000CECF8C3D19F41916CCF3C9CF982F915DDC
:10364000983078F4815D990B21E001C0220F8A95B2
:10365000EAF7822F809590911C03892380931C03A5
:10366000B6CF8D3D31F480911A038E7F80931A037B
:10367000AECF8E3D21F480911A038D7FF7CF8F3D21
:1036800009F0A5CF80911A038B7FF0CF089586D4DF
:103690009C0190911D0380911E03982B21F0209393
:1036A00016033093170390911F0380912003982BEA
:1036B00021F020931403309315038BE193E0DBC1D9
:1036C000EBE1F3E086E011928A95E9F71092190395
:1036D0001092180310921A030895FC01828181113F
:1036E0000EC0838181110BC08481811108C091E0DB
:1036F0008581811101C090E0892F8170089581E05A
:10370000FCCFA6E0B0E0E7E8FBE10C94E02686E021
:10371000EBE1F3E09E012F5F3F4FD90101900D9245
:103720008A95E1F710921D0310921E0310921F0359
:10373000109220038B819C81892B022FF32E8115FF
:1037400081F08091160390911703B9D3AC01909149
:1037500019039115A1F1809121018417150608F430
:103760003BC08D819E81892B89F0809114039091BB
:103770001503A5D3AC0190911803911509F45AC013
:1037800080911D018417150608F462C0602F7F2DFB
:103790008BE193E0C2D2811104C08BE193E09DDF05
:1037A000811175DF86E0E02FFF2DABE1B3E00190E2
:1037B0000D928A95E1F72696E5E00C94FC2620917F
:1037C00022018AE0289F900111242417350748F62A
:1037D0009F5F9093190302C09F3FD1F71B81111582
:1037E00051F027DE91E011160CF09FEF899F802D9C
:1037F000112480931D031C81111551F01ADE91E0F4
:1038000011160CF09FEF899F802D112480931E03C9
:1038100080911D03811509F4A4CF10911E03111589
:1038200009F49FCFF8DD80931D03812FF4DD809391
:103830001E0397CF20911E018AE0289F900111243A
:103840002417350708F0A2CF9F5F9093180302C09A
:103850009F3FD1F71D81111551F02CDE91E011161B
:103860000CF09FEF899F802D112480931F038E8180
:10387000182F811551F01EDE91E011160CF09FEF0C
:10388000899F802D11248093200380911F0381152F
:1038900009F47CCF90912003192F911509F476CF6C
:1038A000BADD80931F03812FB6DD809320036ECF96
:1038B0000F931F93CF93DF93C42FD22FFC018581E9
:1038C0008115C9F04093230369D38093210390931A
:1038D00022038C2F805E883048F481E0C1FD84E0B3
:1038E000C0FD880FC2FD82950E947E04DF91CF91BA
:1038F0001F910F91089510912303141333C08091E9
:10390000210390912203DBD2883C910558F5CD2FFD
:10391000C05E1D17C1F0812F805E883048F481E0C1
:1039200011FD84E010FD880F12FD82950E94830432
:10393000C83048F481E0D1FD84E0D0FD880FD2FD8D
:1039400082950E947E04802F0E94770481E0D1FD41
:1039500084E0D0FD880FD2FD8295C83038F60E94F1
:103960008304C4CF8C2F805E883008F0BFCF81E005
:10397000C1FD84E0C0FD880FC2FD8295F0CF0F939A
:10398000FC01CB01E851FC47E730F10588F5E95D22
:10399000F74D0C94BD2606E221EE41EE6AE17CE78C
:1039A00087DF80E00F91089507E225EE45EE6BE199
:1039B0007CE7F6CF06E221EE40EE68E17CE7F0CF4F
:1039C00007E225EE44EE69E17CE7EACF06E221EE6C
:1039D00042EE6CE17CE7E4CF07E225EE46EE6DE1D6
:1039E0007CE7DECF08E221E045EE6EE17CE7D8CF50
:1039F000FB01858181111092230381E0D3CF809355
:103A0000280390932903089508950895EDD1982FE0
:103A100081E0913009F080E00895E0912803F09171
:103A20002903309739F00190F081E02D309711F0A3
:103A30000995089580E00895E0912803F091290305
:103A4000309731F00280F381E02D309709F009952D
:103A50000895E0912803F0912903309759F02481CB
:103A60003581232B39F026E0DC012C930480F5818D
:103A7000E02D09950895E0912803F09129033097EE
:103A800059F026813781232B39F022E0DC012C9379
:103A90000680F781E02D09950895A3E0B0E0E3E505
:103AA000FDE10C94E326209126033091270328178B
:103AB0003907B1F08093260390932703E091280300
:103AC000F0912903309761F00084F185E02D309763
:103AD00039F023E029838A839B83CE0101960995DF
:103AE0002396E2E00C94FF26A3E0B0E0EAE7FDE1D4
:103AF0000C94E326209124033091250328173907DD
:103B0000B1F08093240390932503E0912803F09172
:103B10002903309761F00084F185E02D309739F06A
:103B200024E029838A839B83CE01019609952396FD
:103B3000E2E00C94FF26CF93DF93C0910601D09171
:103B4000070164DF811521F080913D0387FD11C0DD
:103B50009E012E5F3F4F96E080E09150F901408139
:103B60002F5F3F4F41118F5F9111F7CFDF91CF91C1
:103B7000089520910401309105012E5F3F4F9EE191
:103B8000EBCFCF93C82F811102C080E02EC03EDF63
:103B9000811521F080913D0387FD0FC080910601C2
:103BA00090910701FC013296089620812C17F9F0BC
:103BB0003196E817F907C9F7E8CF8C2F86958695D7
:103BC0008695C03F10F7E0910401F0910501E80FE0
:103BD000F11D228130E0C77081E001C0880FCA95D5
:103BE000EAF7282381E0232B81F2CF91089581E029
:103BF000FCCF9C01FC01329680E09FEF408146178C
:103C000059F031969F3F19F4411101C0982F8F5FF1
:103C10008630A1F79F3F09F40895290F311D97FDC4
:103C20003A95F90162830895FC0132960896219134
:103C3000261302C0DF011E92E817F907C1F70895A5
:103C4000262F269526952695603F60F4820F911DBC
:103C5000FC01677021E001C0220F6A95EAF78281BA
:103C6000822B82830895262F269526952695603FE0
:103C700068F4820F911DFC019DEF61FD97EF60FFDD
:103C8000959562FD92958281892382830895CF93D1
:103C9000C82FBCDE6C2F811559F080913D0387FF42
:103CA00007C08091040190910501CADFCF9108956A
:103CB00080910601909107019CDFF8CFCF93C82F28
:103CC000A5DE6C2F811559F080913D0387FF07C059
:103CD0008091040190910501C6DFCF9108958091F4
:103CE000060190910701A0DFF8CF90DE811571F0F9
:103CF00080913D0387FF0AC0E0910401F091050126
:103D000032968EE111928A95E9F70895E0910601C5
:103D1000F0910701329686E0F5CFDC01FB011196A8
:103D20009C9111978181981322C012968C911297C1
:103D3000811519F0928189131AC013968C911397EB
:103D4000811519F09381891312C015968C911597DE
:103D5000811519F0958189130AC014969C919115CB
:103D600021F081E02481291303C080E001C081E0BB
:103D7000817008950895FECF08958F5F8093260186
:103D80006091230170912401809125019091260179
:103D9000F2CF83E08093260160912301709124018A
:103DA0008091250190912601E6CFE7CF089581E02B
:103DB0008093260160912301709124018091250157
:103DC00090912601D8CFF3CF089591E0811101C0E1
:103DD00090E09093250160912301709124018091DE
:103DE000250190912601C7CF8091250108958093E8
:103DF000240160912301709124018091250190910B
:103E00002601B9CF80912401089580932301609108
:103E10002301709124018091250190912601ABCF5F
:103E200080912301089508950895FECF089508957F
:103E30000895F9CF08950F931F93CF93DF93F7DF82
:103E40000E947810F5DF0AE213E0C0E0D0E08C2F8A
:103E50000E94D10FF80181938F0191E0811101C07F
:103E600090E0D92BCF5FC53091F78D2FDF91CF91A7
:103E70001F910F910895E82FF0E0E65DFC4F8081DF
:103E800090E021E030E002C0220F331F6A95E2F794
:103E90002823392381E0232B09F480E00895411180
:103EA0000DC0E82FF0E0E65DFC4F21E001C0220FDD
:103EB0006A95EAF720958081282320830895CF937F
:103EC000DF93EC016BD08C1B9D0BDF91CF9108959C
:103ED00085B7806885BF85B7806885BF08951F92C4
:103EE0001FB61F9211248F939F93AF93BF9380911E
:103EF0002F03811113C08091810390918203A091BF
:103F00008303B09184034196A11DB11D8093810369
:103F100090938203A0938303B0938403BF91AF91E6
:103F20009F918F911F901FBE1F90189580918903BC
:103F3000843031F10E94740310922F0388E190E0E5
:103F400020E40FB6F894A895809360000FBE2093EC
:103F5000600083B7817F846083BF83B7816083BF44
:103F60007894889583B78E7F83BF0FB6F894A89511
:103F700080916000886180936000109260000FBEA5
:103F800008950E948E060C947A0382E084BD93E02B
:103F900095BD9AEF97BD80936E0008952FB7F89462
:103FA0008091810390918203A0918303B091840357
:103FB0002FBF08952FB7F894609181037091820309
:103FC00080918303909184032FBF089578941F926A
:103FD0001FB61F9211248F939F93AF93BF9380912D
:103FE000810390918203A0918303B0918403019691
:103FF000A11DB11D8093810390938203A09383033D
:10400000B0938403BF91AF919F918F911F901FBE7A
:104010001F90189587E797E7809300089093010811
:1040200088E19AE00FB6F894A895809360000FBEDF
:1040300090936000FFCF88E19AE00FB6F894A895BE
:10404000809360000FBE90936000FFCF9B01BA0188
:10405000909189039430D9F48F708093E9009FEF99
:104060008091E80085FD06C085ED8A95F1F7000096
:104070009150B1F78091E80085FF09C040E050E021
:10408000C901B6D18091E8008E778093E800089549
:1040900043E050E0BC0182E0D9CF46E050E0BC01F3
:1040A00082E0D4CF40E250E0BC0182E0CFCFCF939A
:1040B000DF93EC0199DE48E050E0BE0181E0C6DF0D
:1040C00088E0FE01A0E3B3E001900D928A95E1F74C
:1040D000DF91CF91089580918803811107C016D395
:1040E00066D38091E20084608093E200089510928C
:1040F000880308955CDE81E068CE6091850381E0ED
:10410000611101C080E045CE9091890381E0943037
:1041100009F080E06091850348CE42E061EC81E0E7
:1041200071D242E261EC82E06DD29091890381E02C
:10413000943009F080E0609185031FCE80918B035D
:10414000893081F148F4823009F496C0833009F453
:1041500057C0813041F008958A3009F480C08B3017
:1041600009F468C0089580918A03813A09F047C034
:104170008091E800877F8093E80080918E03909182
:104180008F03892B59F060E080E090E070E07DD1F2
:104190008091E8008B778093E800089568E080E3E1
:1041A00093E0F4CF80918A03813249F580918E03A8
:1041B00090918F03029718F58091E800877F809394
:1041C000E8008091E80082FF16C02091F300809102
:1041D000F200922F029731F48091F100813011F0BA
:1041E000863019F48091F10002DE8091E8008B772F
:1041F0008093E8003BC2809189038111E2CF08954A
:1042000080918A03813AD9F780918E0390918F0330
:10421000892BA9F78091E800877F8093E80080913F
:10422000E80080FFFCCFE0DD8093F1008091E800A2
:104230008E77DECF80918A03813209F780918E03D9
:1042400090918F03892BD9F68091E800877F809326
:10425000E8000CD280918C03B8DD0C948E0680911E
:104260008A03813261F68091E800877F8093E800BD
:10427000FDD180918D03C9CD80918A03813A09F0E7
:10428000BECF8091E800877F8093E8008091E800AE
:1042900080FFFCCFC5DDC8CF84B7877F84BF0FB652
:1042A000F894A895809160008861809360001092D6
:1042B00060000FBE80E890E00FB6F8948093610034
:1042C000909361000FBE7FCD21D271D2E2EEF0E07B
:1042D0008081846080837894CDC487E291E08FCB25
:1042E00080918903853029F480918903853011F00C
:1042F00048CE08951BDE9FDD8115B1F380918703C1
:10430000811591F35FD00E948E06EECF08959A0139
:10431000409190035091910300C0492F50E04330E9
:104320005105C9F070F441305105E9F142305105B1
:1043300071F48BE390E042E553E0F901408351834F
:10434000089541325105E9F04232510519F180E0FA
:1043500090E040E0F2CF482F50E0813061F04230F1
:10436000510561F0EEE4F3E04115510581F78491C8
:1043700090E0AF01E2CFE8E2F3E0F9CFE6E1F3E06D
:10438000F6CF61307105A0F011F789E090E04DE7BC
:1043900053E0D3CF6130710580F0C9F686EB90E031
:1043A0004FE953E0CACF82E190E04DE853E0C5CF3A
:1043B00089E090E044E653E0C0CF84E490E045E536
:1043C00054E0BBCF80E189BD82E189BD09B400FE24
:1043D000FDCF8091D8008F7D8093D8008091E00040
:1043E00082608093E0008091E00081FDFCCF089521
:1043F000AF92BF92CF92DF92FF920F931F93CF9312
:10440000DF936C01EB018A0150D1F82E811123C09A
:104410000115110539F0F80180819181C81BD90B74
:10442000C80ED91EA12CB12C2097A9F08091E800CC
:1044300085FD21C08091E8008E778093E80001150A
:104440001105A1F0F801808191818A0D9B1D808367
:10445000918385E0F82E8F2DDF91CF911F910F91E1
:10446000FF90DF90CF90BF90AF9008951ED181153F
:10447000E9F2F82EF0CFF60181916F018093F100FF
:1044800021978FEFA81AB80ACFCFFC012091900393
:10449000309191032617370720F06115710569F0F7
:1044A0009B0190E02115310571F491110CC08091B0
:1044B000E80082FF38C080E008959091E8009E7780
:1044C0009093E800EDCF809189038115C1F185308B
:1044D000C1F18091E80083FD30C08091E80082FD49
:1044E000E6CF8091E80080FFDDCF8091F30040911E
:1044F000F200582F2115310519F04830510558F0B8
:1045000091E04830510509F090E04091E8004E7785
:104510004093E800C7CF81918093F1002150310989
:104520004F5F5F4FE7CF80918903811541F0853060
:1045300041F08091E80083FFBACF81E0089582E0E6
:10454000089583E00895FC01209190033091910338
:104550002617370720F06115710569F09B0190E07F
:104560002115310571F491110CC08091E80082FF92
:1045700039C080E008958091E8008E778093E8004C
:10458000EDCF809189038115C9F18530C9F1809102
:10459000E80083FD31C08091E80082FDE6CF809184
:1045A000E80080FFDDCF8091F3004091F200582FAA
:1045B0002115310519F04830510558F091E0483087
:1045C000510509F090E08091E8008E778093E80033
:1045D000C7CF84918093F1003196215031094F5F0C
:1045E0005F4FE6CF80918903811541F0853041F01E
:1045F0008091E80083FFB9CF81E0089582E00895BB
:1046000083E00895982F973028F08F708093E90009
:1046100081E008959093E900242F762F50E09817B9
:1046200031F07091EC002091ED005091F00021FDEF
:1046300002C09F5FE8CF3091EB003E7F3093EB00EC
:104640003091ED003D7F3093ED003091EB00316013
:104650003093EB007093EC002093ED005093F0004A
:104660002091EE0027FDE5CF80E0089580918A0338
:1046700087FF13C08091E80082FF06C08091E800A8
:104680008B778093E8000895809189038111F2CFA0
:104690000895809189038115D9F38091E80080FF06
:1046A000F8CF8091E8008E77ECCF2091E400309134
:1046B000E50095E6A9012091EC00822F817020FF92
:1046C00006C08091E80080FF06C080E00895209138
:1046D000E80022FD1AC080918903811589F0853098
:1046E00089F08091EB0085FD0FC02091E4003091AE
:1046F000E50042175307F9F29150E1F684E008957E
:1047000082E0089583E0089581E008955FD066D047
:10471000E0EEF0E0808181608083E8ED80818F773A
:10472000808319BCA7EDB0E08C918E7F8C93808143
:104730008F7E8083109288030895CF93DF9346D0B5
:104740004DD0C8EDD0E088818F77888388818068DC
:10475000888388818F7D888319BC10928903109289
:1047600085031092870310928603E0EEF0E08081CB
:104770008B7F808388818160888342E060E080E075
:1047800041DFE1EEF0E080818E7F8083E2EE808188
:1047900081608083808188608083E0EE80818E7F6D
:1047A0008083888180618883DF91CF910895E8EDCF
:1047B000F0E080818F7E8083E7ED8081816080835F
:1047C00084E082BF81E080938803B7CFE8EDF0E01A
:1047D00080818E7F80831092E20008951092DA002B
:1047E0001092E10008951F920F920FB60F921124BC
:1047F0002F933F934F935F936F937F938F939F93E9
:10480000AF93BF93EF93FF938091E10082FF0AC0C3
:104810008091E20082FF06C08091E1008B7F80934F
:10482000E10027D28091DA0080FF18C08091D80083
:1048300080FF14C08091DA008E7F8093DA0080912F
:10484000D90080FF8FC080E189BD82E189BD09B4B4
:1048500000FEFDCF81E0809389033DDC8091E10083
:1048600080FF18C08091E20080FF14C08091E200B8
:104870008E7F8093E2008091E20080618093E2006D
:104880008091D80080628093D80019BC85E0809325
:10489000890333DC8091E10084FF28C08091E2002D
:1048A00084FF24C080E189BD82E189BD09B400FE96
:1048B000FDCF8091D8008F7D8093D8008091E1005A
:1048C0008F7E8093E1008091E2008F7E8093E200F2
:1048D0008091E20081608093E200809185038115E0
:1048E00009F445C084E0809389030EDC8091E100E7
:1048F00083FF27C08091E20083FF23C08091E10005
:10490000877F8093E10082E0809389031092850382
:104910008091E1008E7F8093E1008091E2008E7FA4
:104920008093E2008091E20080618093E20042E0A7
:1049300060E080E067DE8091F00088608093F000A6
:10494000D9DBFF91EF91BF91AF919F918F917F91B3
:104950006F915F914F913F912F910F900FBE0F90EC
:104960001F90189519BC10928903C1DB77CF8091F5
:10497000E30087FF02C083E0B6CF81E0B4CF1F928F
:104980000F920FB60F9211241F932F933F934F93C3
:104990005F936F937F938F939F93AF93BF93CF93C7
:1049A000DF93EF93FF93E9EEF0E080811091EC004C
:1049B0008F7010FB112717F9182B1082C0EFD0E071
:1049C0008881877F888378941CD0E9EEF0E010829C
:1049D0008881886088831F701083FF91EF91DF9139
:1049E000CF91BF91AF919F918F917F916F915F9187
:1049F0004F913F912F911F910F900FBE0F901F90DD
:104A00001895AAE2B0E0E6E0F5E2DCC18AE893E0BE
:104A1000FC0101962091F100208323E08239920766
:104A2000B9F78CDB8091E80083FF37C080918A035F
:104A300090918B039A3088F5E92FF0E0E25DF74D15
:104A40009CC1803889F0823841F580918E038F7047
:104A5000873018F58093E9008091EB0085FB88276B
:104A600080F91092E90006C080918703880F909129
:104A70008603892B9091E800977F9093E8008093BC
:104A8000F1001092F1008091E8008E7722C0811130
:104A900015C080918C03813001F18091E80083FF83
:104AA0000AC08091E800877F8093E8008091EB0046
:104AB00080628093EB00AA96E3E0A0C1823069F7A0
:104AC00080918C03811579F01092E9008091E800C3
:104AD000877F8093E800CADDE0CF933009F080E063
:104AE00080938703F1CF80918E038F70282F215000
:104AF000263098F68093E9002091EB0020FFE4CF68
:104B0000933031F48091EB0080628093EB00DCCF36
:104B10009091EB0090619093EB0021E001C0220F97
:104B20008A95EAF72093EA001092EA008091EB0060
:104B30008860EBCF8111B1CF80918C038F77182FD4
:104B40008091E3008078812B8093E3008091E800DE
:104B5000877F8093E8008ADD8091E80080FFFCCFAA
:104B60008091E30080688093E30083E0111101C02D
:104B700082E08093890391CF8058823008F08DCFF6
:104B800080918C0390918D038C3D23E0920789F5F1
:104B900083E08A838AE289834FB7F894DE01139613
:104BA00020E03EE051E2E32FF0E050935700849183
:104BB00020FF03C082958F703F5F8F708A30B8F0FE
:104BC000895C8D931D922F5F243169F74FBF8091CF
:104BD000E800877F8093E8006AE270E0CE010196EA
:104BE00054DC8091E8008B778093E80056CF805D9D
:104BF000E8CF60918E0370918F03AE014F5F5F4FDE
:104C000086DBBC01892B09F448CF9091E800977F9F
:104C10009093E80089819A8196DCE3CF803809F08F
:104C20003CCF8091E800877F8093E80080918503E6
:104C30008093F10028CF811130CF90918C03923076
:104C400008F02BCF8091E800877F8093E800909355
:104C500085030CDD80918503811529F084E0809324
:104C600089035BDA1ACF8091E30087FDF7CF81E0FB
:104C7000F6CF0895CF9380918903811591F08091AB
:104C8000E900C091EC008F70C0FBCC27C7F9C82B9E
:104C90001092E9008091E80083FDB3DECF70C093ED
:104CA000E900CF91089505D0332312F48A1B9B0BA2
:104CB0006BC0A29FB001B39FC001A39F700D811D67
:104CC0001124911DB29F700D811D1124911D089515
:104CD000992778E0880F991F961708F0961B881F70
:104CE0007A95C9F780950895AA1BBB1B51E107C0AF
:104CF000AA1FBB1FA617B70710F0A61BB70B881F6C
:104D0000991F5A95A9F780959095BC01CD010895FA
:104D100097FB072E16F4009406D077FD08D0E4DF49
:104D200007FC05D03EF4909581959F4F08957095AE
:104D300061957F4F0895A1E21A2EAA1BBB1BFD01AE
:104D40000DC0AA1FBB1FEE1FFF1FA217B307E4076A
:104D5000F50720F0A21BB30BE40BF50B661F771FC2
:104D6000881F991F1A9469F76095709580959095A2
:104D70009B01AC01BD01CF010895EE0FFF1F05900F
:104D8000F491E02D099495DFB7FF0895821B930BF2
:104D900008958FDFA59F900DB49F900DA49F800D67
:104DA000911D112408952F923F924F925F926F921E
:104DB0007F928F929F92AF92BF92CF92DF92EF92AB
:104DC000FF920F931F93CF93DF93CDB7DEB7CA1B2C
:104DD000DB0B0FB6F894DEBF0FBECDBF09942A8857
:104DE000398848885F846E847D848C849B84AA84FF
:104DF000B984C884DF80EE80FD800C811B81AA818C
:104E0000B981CE0FD11D0FB6F894DEBF0FBECDBF56
:104E1000ED010895AAE0B0E0EFE0F7E2D4CF898792
:104E20009A87FC0160817181828193810097704033
:104E3000604021F464E279ED8BE597E02DE133EFFA
:104E400041E050E094D029833A834B835C839B01FB
:104E5000AC01A7EAB1E49DDF6D837E838F839887E1
:104E6000ACEEB4EF29813A814B815C819ED02D81DB
:104E70003E814F815885260F371F481F591FC90192
:104E8000DA01B7FF03C00197A109B048E985FA85A7
:104E900080839183A283B3839F772A96E2E0AFCF8A
:104EA000B9CF80E091E0B6CF8093000190930101EB
:104EB00010920201109203010895FC0141505040EC
:104EC00030F001900616D1F73197CF010895882769
:104ED00099270895FB01DC0104C08D910190801990
:104EE00021F441505040C8F7881B990B0895F99957
:104EF000FECF92BD81BDF89A992780B50895A6E1AD
:104F0000B0E044E050E025C0A8E1B0E042E050E06D
:104F100020C0262FF999FECF92BD81BDF89A019746
:104F200000B4021639F01FBA20BD0FB6F894FA9AF1
:104F3000F99A0FBE08950396272FECDFEADF252F9D
:104F4000E9DF242FE7CF0196272FE4DFE2CFDC0152
:104F5000CB01FC01F999FECF06C0F2BDE1BDF89A84
:104F6000319600B40D9241505040B8F70895052E87
:104F700097FB16F400940FD057FD05D0DCDE07FC3C
:104F800002D046F408C050954095309521953F4F8A
:104F90004F4F5F4F089590958095709561957F4F25
:104FA0008F4F9F4F0895B7FFF4CEF3DE821B930B14
:104FB0000895F894FFCFC304C304FA04FA0451051A
:104FC0006D05EB04EB047105E305F005F0051D111B
:104FD0002011241128112C113011341138113C11D9
:104FE000401144118C19FB1994195E196219981912
:104FF00066199C19A8197219F4197619AC197A193D
:10500000B019D5197E19B419DC198419BA19C21945
:105010006A19A0196E19A4198819BE19CC19E519B5
:10502000F21958199019021A9B1AA01AA21AA71A53
:10503000B71AB71AB71AB71AB71AB71AB71AB71AE8
:10504000A91AAD1AB01AB51AC41ACA1ACE1ADA1C9D
:10505000E01CCB1CD41CE61CEC1CF21C21254725B3
:105060004D2547254D259A25BC254D250E261B2669
:10507000010000006E028E020101020010001010FB
:1050800001191A1B1C1D1E1F202122280850011E59
:105090000A140100000100021F572052204D204831
:1050A00020E200E900EA00B500B600B700CD0083B9
:1050B00001CC008A019201940121022302240225DD
:1050C00002260227022A02B300B4006F0070009F7C
:1050D00001CB019F02A002E200E900EA00B500B6A0
:1050E00000B700CD008301CC008A01920194012118
:1050F00002230224022502260227022A02B300B458
:10510000006F0070009F01CB019F02A0023133327B
:10511000366697C634350001020202020606060909
:1051200009090909090F0F0F0F0F0F151515181988
:10513000191919191919191919232425252525258E
:1051400025A518A718B218CA1800FF010001000011
:0A515000FFFF0000010001FF000056
:00000001FF
